:100000000EC026C014C224C023C022C021C020C0FC
:100010001FC01EC01DC01CC01BC01AC019C01124A7
:100020001FBECFEDCDBF10E0A0E6B0E0E4E9F5E003
:1000300002C005900D92A436B107D9F720E0A4E6DE
:10004000B0E001C01D92A037B207E1F741D2A0C2D3
:10005000D7CFF89483E083BF80EF88BD2FE789EA8C
:1000600093E0215080409040E1F700C000008FEF06
:1000700088BD81E083BF7894089583E38ABD81E0E1
:1000800083BF8FEF88BD80B7856D80BF0895809155
:1000900062008295880F807E805E8DBD8DB5805117
:1000A0008EBD08958FE087BB80E188BBC59A089517
:1000B00080E28BBF82E085BF80E185BB78940895A4
:1000C00080936F006091600044D2809588BD089550
:1000D00080936200682F84E090E04CD2D8DF0895CE
:1000E00081110AC0809166008F3F41F080916600C7
:1000F0008F5F80936600089510926600089588B31C
:10010000837F88BB8091670098B38C70892B88BBF4
:10011000089585E2809366008091670080958093C2
:1001200067006091670080E090E024D2E8DF0895E6
:100130002091640030E0281B3109233031052CF078
:1001400086E080936500DBDF089580916500882359
:1001500029F0809165008150809365000895809119
:100160006700882341F080916500811104C098B335
:1001700084E0892788BB089580916A00882361F014
:1001800080916800875F8093600010926A006091A0
:10019000600081E090E0EED110926C000895CF9362
:1001A000DF93D82FC62F80916B00882399F0809120
:1001B0006F008093690010926F0010926B00109294
:1001C0006C006091690082E090E0D4D186E080DF2D
:1001D00040DF4BC080916A008823B1F03ADF809104
:1001E00068008F5F80936800809168008530E9F532
:1001F0002FE788E391E0215080409040E1F700C074
:10020000000027DFB9DF31C0623078F180916F00E4
:1002100081112BC01EDF80916C00882311F12FE724
:1002200088E391E0215080409040E1F700C0000059
:1002300010DFC23019F48D2F4BDF17C0C33031F4FB
:1002400081E080936A00109268000FC0C43031F4DE
:10025000D093620081E080936B0007C010926C0025
:1002600004C061E083E090E085D1DF91CF910895F3
:10027000662309F19091610098132BC080916D0065
:10028000811105C080916E008F5F80936E00809118
:100290006D0021E0280F20936D008430D0F08FEFA7
:1002A0008093610080916E00882399F060916E00C8
:1002B000892F75DF089590916100891720F480934C
:1002C000610010926E0090916100891302C010923B
:1002D0006D0008951F93CF93DF93382F3E7F232F18
:1002E00022952F702327322F369536952327322FCC
:1002F00036952327422F417050E09C01217033270F
:100300004217530739F1EC011C2F1F7709F034DF36
:100310008091620090916200963051F480916F005C
:10032000811118C01123B1F080916900C9DE12C09B
:100330008F709E0102C0220F331F8A95E2F726FFBD
:1003400007C080916F00811105C081E0B9DE02C055
:1003500080E0B6DEDF91CF911F9108951F93CF9378
:10036000DF939C010024220F331F001C220F331F38
:10037000001C232F302DC22FC770BC0176956795C6
:10038000729562956F7067277F706727162F1170BF
:1003900020916200C21317C096958795D82FDF7001
:1003A0008D2F8EDE8D2F9CDE8D2FC2DE111109C0A8
:1003B00080916600893228F080916C00811101C023
:1003C000A8DED0936400612F8C2F52DFDF91CF9194
:1003D0001F910895CF93DF93EC01C1DECE01892FE9
:1003E00099278695019779F4CE010024880F991FEB
:1003F000001C880F991F001C892F902D0F97A1F0CA
:10040000CE01ACDF11C0CE01892F992782958F7064
:10041000019751F0CE01880F892F881F990B919574
:10042000019711F4CE0156DFDF91CF9108951F920D
:100430000F920FB60F9211242F933F934F935F9318
:100440006F937F938F939F93AF93BF93EF93FF939C
:1004500022B782B7821B8C3CE0F3245360E070E04B
:1004600041E0660F771F642B92B7921B9C3CE0F330
:100470003CEC320F92B7931B9C3CE0F338E9320F0F
:1004800046B34295417092B7931B9C3CE0F334E62F
:10049000320F92B7931B9C3CE0F3205D86B38295AC
:1004A00081704813DECFCB0195DF80E28ABFFF91D8
:1004B000EF91BF91AF919F918F917F916F915F91DC
:1004C0004F913F912F910F900FBE0F901F90189555
:1004D00084E090E047D08093620082E090E042D0D8
:1004E0008093690081E090E03DD08093600080912E
:1004F00060008F3018F08EE08093600083E090E021
:1005000031D080936C0080916C00882351F08091F1
:100510006C00823010F010926C0060E083E090E09C
:1005200029D080E090E01ED08093670080B5816084
:1005300080BD80B5826080BDB5DD9FDDA8DDDFDDDB
:10054000B7DD85B7877E85BF85B7806285BF889513
:10055000FBCF002480FD060E660F11F08695D1F7C3
:10056000802D0895E199FECF1FBA8EBBE09A99279E
:100570008DB30895262FE199FECF1CBA1FBA8EBB0A
:100580002DBB0FB6F894E29AE19A0FBE019608953A
:04059000F894FFCF0D
:040594000EFFFF0057
:00000001FF
