:100000000EC026C09DC124C023C022C021C020C074
:100010001FC01EC01DC01CC01BC01AC019C01124A7
:100020001FBECFEDCDBF10E0A0E6B0E0EAE9F4E0FE
:1000300002C005900D92A436B107D9F720E0A4E6DE
:10004000B0E001C01D92AD36B207E1F7CAD123C2BC
:10005000D7CFF89483E083BF80EF88BD2FE789EA8C
:1000600093E0215080409040E1F700C000008FEF06
:1000700088BD81E083BF7894089583E38ABD81E0E1
:1000800083BF8FEF88BD80B7856D80BF0895809155
:1000900062008295880F807E805E8DBD8DB5805117
:1000A0008EBD089517BAB99AB89A88B3807188BB83
:1000B00088B3847088BB88B3887088BB88B380722B
:1000C00088BB089580E28BBF82E085BF80E185BB5D
:1000D0007894089580936C0060916000BDD1809504
:1000E00088BD089580936200682F83E090E0C5D1B9
:1000F000CEDF089580916600882361F080916400CE
:10010000875F80936000109266006091600080E0DD
:1001100090E0B3D180916800811110926800089539
:10012000CF93DF93D82FC62F80916700882389F063
:1001300080916C008093650010926C0010926700B3
:100140006091650081E090E098D186E0CBDF81DFAF
:100150004AC0809166008823B1F07BDF8091640003
:100160008F5F80936400809164008530E1F52FE714
:1001700088E391E0215080409040E1F700C000000A
:1001800068DFB8DF30C0623070F180916C0081119F
:100190002AC05FDF80916800882309F12FE788E398
:1001A00091E0215080409040E1F700C0000051DF15
:1001B000C23019F48D2F96DF0FC0C33031F481E0C7
:1001C000809366001092640007C0C43029F4D09375
:1001D000620081E0809367001092680004C061E0D3
:1001E00082E090E04AD1DF91CF910895662309F132
:1001F0009091610098132BC080916900811105C016
:1002000080916A008F5F80936A008091690021E08D
:10021000280F209369008430D0F08FEF8093610025
:1002200080916A00882399F060916A00892F78DFB5
:10023000089590916100891720F4809361001092D5
:100240006A0090916100891302C0109269000895BC
:100250001F93CF93DF93EC01182F1F7709F04ADF2C
:100260008091620090916200963051F480916C0010
:10027000811117C01123A9F0809165002BDF11C0F7
:100280008F7002C0CC0FDD1F8A95E2F7C6FF07C052
:1002900080916C00811105C081E01CDF02C080E00C
:1002A00019DFDF91CF911F9108951F93CF93DF93B3
:1002B000EC010024880F991F001C880F991F001C57
:1002C000892F902D182F177080916200181305C088
:1002D000CE01969587958F70FDDED695C795D29500
:1002E000C295CF70CD27DF70CD276C2F6170812F25
:1002F0007DDFDF91CF911F91089594FF03C021E02E
:1003000020936B0020916B002223C9F020916B0099
:10031000293028F4243060F4233031F00BC0293028
:1003200019F02A3029F006C087FF04C091DF02C00F
:1003300091FDBBDF80916B008F5F80936B00089510
:100340001F920F920FB60F9211242F933F934F934A
:100350005F936F937F938F939F93AF93BF93EF932D
:10036000FF9322B782B7821B8C3CE0F3245360E0FA
:1003700070E041E0660F771F642B92B7921B9C3CA4
:10038000E0F33CEC320F92B7931B9C3CE0F338E96E
:10039000320F46B34295417092B7931B9C3CE0F3F9
:1003A00034E6320F92B7931B9C3CE0F3205D86B39A
:1003B000829581704813DECFCB019FDF80E28ABF38
:1003C000FF91EF91BF91AF919F918F917F916F912D
:1003D0005F914F913F912F910F900FBE0F901F9003
:1003E000189583E090E041D08093620081E090E036
:1003F0003CD08093650080E090E037D0809360002F
:10040000809160008F3018F08EE08093600082E071
:1004100090E02BD08093680080916800882351F091
:1004200080916800823010F01092680060E082E0F5
:1004300090E023D080B5816080BD80B5826080BDB2
:1004400031DE1BDE24DE3EDE85B7877E85BF85B7C5
:10045000806285BF8895FBCF002480FD060E660F65
:1004600011F08695D1F7802D0895E199FECF1FBA3E
:100470008EBBE09A99278DB30895262FE199FECF80
:100480001CBA1FBA8EBB2DBB0FB6F894E29AE19A44
:0A0490000FBE01960895F894FFCF07
:04049A000EFFFF0052
:00000001FF
