:100000000EC026C0B8C124C023C022C021C020C059
:100010001FC01EC01DC01CC01BC01AC019C01124A7
:100020001FBECFEDCDBF10E0A0E6B0E0E0EDF4E004
:1000300002C005900D92A436B107D9F720E0A4E6DE
:10004000B0E001C01D92AC36B207E1F7E5D13EC287
:10005000D7CFF89483E083BF80EF88BD2FE789EA8C
:1000600093E0215080409040E1F700C000008FEF06
:1000700088BD81E083BF7894089583E38ABD81E0E1
:1000800083BF8FEF88BD80B7856D80BF0895809155
:1000900062008295880F807E805E8DBD8DB5805117
:1000A0008EBD089517BAB99AB89A88B3807188BB83
:1000B00088B3847088BB88B3887088BB88B380722B
:1000C00088BB089580E28BBF82E085BF80E185BB5D
:1000D0007894089580936B0060916000D8D18095EA
:1000E00088BD089580936200682F83E090E0E0D19E
:1000F000CEDF089580916600882361F080916400CE
:10010000875F80936000109266006091600080E0DD
:1001100090E0CED18091680081111092680008951E
:10012000CF93DF93D82FC62F90916700992389F042
:1001300080916B008093650010926B0010926700B5
:100140006091650081E090E0B3D186E0CBDF81DF94
:100150004AC0909166009923B1F07BDF80916400E2
:100160008F5F80936400809164008530E1F52FE714
:1001700088E391E0215080409040E1F700C000000A
:1001800068DFB8DF30C0623070F180916B008111A0
:100190002AC05FDF80916800882309F12FE788E398
:1001A00091E0215080409040E1F700C0000051DF15
:1001B000C23019F48D2F96DF0FC0C33031F481E0C7
:1001C000809366001092640007C0C43029F4D09375
:1001D000620081E0809367001092680004C061E0D3
:1001E00082E090E065D1DF91CF910895662301F11F
:1001F0009091610089132AC090916900911105C006
:1002000090916A009F5F90936A009091690021E04D
:10021000290F209369009430C8F09FEF90936100FC
:1002200090916A00992391F060916A0079DF0895B6
:1002300090916100891720F48093610010926A0008
:1002400090916100981302C01092690008951F9365
:10025000CF93DF93EC01982F9E7F892F82958F702B
:100260009827892F869586959827892F8695982790
:10027000292F217030E0CE01817099272817390786
:1002800029F11C2F1F7709F035DF809162009091D2
:100290006200963051F480916B00811117C01123D8
:1002A000A9F08091650016DF11C08F7002C0CC0FDD
:1002B000DD1F8A95E2F7C6FF07C080916B008111B0
:1002C00005C081E007DF02C080E004DFDF91CF914D
:1002D0001F9108951F93CF93DF93EC010024880FA3
:1002E000991F001C880F991F001C892F902D182F13
:1002F000177080916200181305C0CE0196958795FE
:100300008F70E8DED695C795D295C295CF70CD2770
:10031000DF70CD276C2F6170812F68DFDF91CF9167
:100320001F9108959C01232F3327269521303105F5
:1003300079F49C010024220F331F001C220F331F6D
:10034000001C232F302D2F303105A1F0C3DF08957D
:100350009C01232F332722952F702130310551F036
:100360009C01220F232F221F330B319521303105A1
:1003700009F46DDF08951F920F920FB60F921124AA
:100380002F933F934F935F936F937F938F939F939D
:10039000AF93BF93EF93FF9322B782B7821B8C3C3E
:1003A000E0F3245360E070E041E0660F771F642BB8
:1003B00092B7921B9C3CE0F33CEC320F92B7931B3C
:1003C0009C3CE0F338E9320F46B34295417092B756
:1003D000931B9C3CE0F334E6320F92B7931B9C3C9A
:1003E000E0F3205D86B3829581704813DECFCB01A8
:1003F00099DF80E28ABFFF91EF91BF91AF919F910A
:100400008F917F916F915F914F913F912F910F90BD
:100410000FBE0F901F90189583E090E041D080931D
:10042000620081E090E03CD08093650080E090E045
:1004300037D080936000809160008F3018F08EE09C
:100440008093600082E090E02BD0809368008091E0
:100450006800882351F080916800823010F010927B
:10046000680060E082E090E023D080B5816080BDCC
:1004700080B5826080BD16DE00DE09DE23DE85B732
:10048000877E85BF85B7806285BF8895FBCF0024B6
:1004900080FD060E660F11F08695D1F7802D089528
:1004A000E199FECF1FBA8EBBE09A99278DB30895CC
:1004B000262FE199FECF1CBA1FBA8EBB2DBB0FB6FB
:1004C000F894E29AE19A0FBE01960895F894FFCF4E
:0404D0000EFFFF001C
:00000001FF
