:100000000EC026C0EAC124C023C022C021C020C027
:100010001FC01EC01DC01CC01BC01AC019C01124A7
:100020001FBECFEDCDBF10E0A0E6B0E0E0E4F5E00C
:1000300002C005900D92A436B107D9F720E0A4E6DE
:10004000B0E001C01D92AE36B207E1F717D276C21A
:10005000D7CFF89483E083BF80EF88BD2FE789EA8C
:1000600093E0215080409040E1F700C000008FEF06
:1000700088BD81E083BF7894089583E38ABD81E0E1
:1000800083BF8FEF88BD80B7856D80BF0895809155
:1000900062008295880F807E805E8DBD8DB5805117
:1000A0008EBD089517BAB99AB89ABB9A88B3807171
:1000B00088BBC29AC59A089580E28BBF82E085BF53
:1000C00080E185BB7894089580936D006091600015
:1000D00016D2809588BD089580936200682F84E0D1
:1000E00090E01ED2D4DF089581110AC0809164008F
:1000F0008F3F41F0809164008F5F8093640008958A
:10010000109264000895C3988091650098B3887038
:10011000892B88BB089585E28093640080916500F7
:100120008095809365006091650080E090E0F8D153
:10013000EADF089580916800882361F0809166006D
:10014000875F80936000109268006091600081E09A
:1001500090E0E6D110926A000895CF93DF93D82FF4
:10016000C62F80916900882399F080916D0080935B
:10017000670010926D001092690010926A00609101
:10018000670082E090E0CCD186E0A6DF62DF4BC062
:10019000809168008823B1F05CDF809166008F5FFA
:1001A00080936600809166008530E9F52FE788E34B
:1001B00091E0215080409040E1F700C0000049DF0D
:1001C000B9DF31C0623078F180916D0081112BC0B0
:1001D00040DF80916A00882311F12FE788E391E0E6
:1001E000215080409040E1F700C0000032DFC23073
:1001F00019F48D2F71DF17C0C33031F481E0809383
:100200006800109266000FC0C43031F4D0936200D1
:1002100081E08093690007C010926A0004C061E029
:1002200083E090E07DD1DF91CF910895662309F1BD
:100230009091610098132BC080916B00811105C0D3
:1002400080916C008F5F80936C0080916B0021E047
:10025000280F20936B008430D0F08FEF80936100E3
:1002600080916C00882399F060916C00892F75DF74
:10027000089590916100891720F480936100109295
:100280006C0090916100891302C010926B00089578
:100290001F93CF93DF93382F3E7F232F22952F700C
:1002A0002327322F369536952327322F369523274D
:1002B000422F417050E09C012170332742175307B1
:1002C00039F1EC011C2F1F7709F034DF80916200B7
:1002D00090916200963051F480916D00811118C0A8
:1002E0001123B1F080916700EFDE12C08F709E0184
:1002F00002C0220F331F8A95E2F726FF07C08091C4
:100300006D00811105C081E0DFDE02C080E0DCDE2F
:10031000DF91CF911F9108951F93CF93DF939C019D
:100320000024220F331F001C220F331F001C232F19
:10033000302DC22FC770BC01769567957295629576
:100340006F7067277F706727D62FD170209162006A
:10035000C21313C096958795182F1F70812FB4DE96
:10036000812FC2DED11109C080916400893228F04A
:1003700080916A00811101C0CEDE6D2F8C2F56DF77
:10038000DF91CF911F9108959C01232F332726954C
:100390002130310579F49C010024220F331F001C09
:1003A000220F331F001C232F302D2F303105A1F0D9
:1003B000B3DF08959C01232F332722952F7021301E
:1003C000310551F09C01220F232F221F330B319551
:1003D0002130310509F45CDF08951F920F920FB6AA
:1003E0000F9211242F933F934F935F936F937F93BB
:1003F0008F939F93AF93BF93EF93FF9322B782B7EF
:10040000821B8C3CE0F3245360E070E041E0660F17
:10041000771F642B92B7921B9C3CE0F33CEC320FAD
:1004200092B7931B9C3CE0F338E9320F46B34295F8
:10043000417092B7931B9C3CE0F334E6320F92B7C5
:10044000931B9C3CE0F3205D86B38295817048133A
:10045000DECFCB0199DF80E28ABFFF91EF91BF91A0
:10046000AF919F918F917F916F915F914F913F914C
:100470002F910F900FBE0F901F90189584E090E081
:1004800047D08093620082E090E042D08093670082
:1004900081E090E03DD080936000809160008F30DB
:1004A00018F08EE08093600083E090E031D080937C
:1004B0006A0080916A00882351F080916A0082303E
:1004C00010F010926A0060E083E090E029D080E0B4
:1004D00090E01ED08093650080B5816080BD80B5BE
:1004E000826080BDDFDDC9DDD2DD0DDEE5DD85B7F3
:1004F000877E85BF85B7806285BF8895FBCF002446
:1005000080FD060E660F11F08695D1F7802D0895B7
:10051000E199FECF1FBA8EBBE09A99278DB308955B
:10052000262FE199FECF1CBA1FBA8EBB2DBB0FB68A
:10053000F894E29AE19A0FBE01960895F894FFCFDD
:040540000EFFFF00AB
:00000001FF
