:100000000EC026C0B0C124C023C022C021C020C061
:100010001FC01EC01DC01CC01BC01AC019C01124A7
:100020001FBECFEDCDBF10E0A0E6B0E0E8EAF4E0FF
:1000300002C005900D92A436B107D9F720E0A4E6DE
:10004000B0E001C01D92AC36B207E1F7DDD12AC2A3
:10005000D7CF83E083BF80EF88BD2FEF80E792E0AA
:10006000215080409040E1F700C000008FEF88BD34
:1000700081E083BF089583E38ABD81E083BF8FEF72
:1000800088BD80B7856D80BF08958091620082959C
:10009000880F807E805E8DBD8DB580518EBD0895A8
:1000A000B99AB89ABC98089580E28BBF82E085BF68
:1000B00080E185BB7894089580936B006091600027
:1000C000D2D1809588BD089580936200682F83E027
:1000D00090E0DAD1DADF089580916500882339F065
:1000E000109265006091600080E090E0CDD1809139
:1000F00067008111109267000895CF93DF93D82F86
:10010000C62F80916600882309F12FE788E391E0EC
:10011000215080409040E1F700C000009ADF2FE7B7
:1001200088E391E0215080409040E1F700C000005A
:100130001092660080916B0080936400609164006F
:1001400081E090E0A1D186E0BFDF43C080916500EF
:10015000882371F07EDF809160008E5F8093600065
:10016000809160008F30A8F18EE08093600031C0F4
:10017000623078F180916B0081112BC06ADF809131
:100180006700882311F12FE788E391E02150804038
:100190009040E1F700C000005CDFC23019F48D2F01
:1001A00093DF10C0C33039F481E08093650084E0B0
:1001B0008093600007C0C43029F4D093620081E0CE
:1001C000809366001092670004C061E082E090E0D6
:1001D0005BD1DF91CF910895662309F19091610081
:1001E00098132BC080916800811105C0809169002F
:1001F0008F5F809369008091680021E0280F209331
:1002000068008430D0F08FEF8093610080916900A6
:10021000882399F060916900892F6FDF089590918C
:100220006100891720F48093610010926900909119
:100230006100891302C0109268000895CF93DF9384
:10024000EC0180FD49DF8091620002C0CC0FDD1F10
:100250008A95E2F7C07480916200863049F488B5CF
:100260008F3F81F4CC2371F08091640025DF0AC0B8
:10027000CC2331F088B58F3F29F481E01DDF02C027
:1002800080E01ADFDF91CF9108951F93CF93DF9322
:10029000EC010024880F991F001C880F991F001C77
:1002A000892F902D182F177080916200181305C0A8
:1002B000CE01969587958F70FFDED695C795D2951E
:1002C000C295CF70CD27DF70CD276C2F6170812F45
:1002D00083DFDF91CF911F9108959C01232F332756
:1002E00022952F702130310519F421E020936A0006
:1002F00020916A002223B1F120916A00293038F45C
:10030000243000F5223041F0233071F026C029302E
:1003100059F02A30B9F021C0892F99278695019785
:10032000E1F010926A0008959C01220F232F221FF2
:10033000330B31952130310519F010926A00089580
:100340007DDF0BC09C01232F3327269521303105FB
:1003500019F010926A00089598DF80916A008F5F0B
:1003600080936A0008951F920F920FB60F92112486
:100370002F933F934F935F936F937F938F939F93AD
:10038000AF93BF93EF93FF9322B782B7821B8C3C4E
:10039000E0F3245360E070E041E0660F771F642BC8
:1003A00092B7921B9C3CE0F33CEC320F92B7931B4C
:1003B0009C3CE0F338E9320F46B34295417092B766
:1003C000931B9C3CE0F334E6320F92B7931B9C3CAA
:1003D000E0F3205D86B3829581704813DECFCB01B8
:1003E0007CDF80E28ABFFF91EF91BF91AF919F9137
:1003F0008F917F916F915F914F913F912F910F90CE
:100400000FBE0F901F90189583E090E035D0809339
:10041000620081E090E030D08093640080E090E062
:100420002BD080936000809160008F3018F08EE0B8
:100430008093600082E090E01FD0809367008091FD
:100440006700882351F080916700823010F010928D
:10045000670060E082E090E017D016B821DE0BDE86
:1004600014DE22DEFFCF002480FD060E660F11F0A1
:100470008695D1F7802D0895E199FECF1FBA8EBBE6
:10048000E09A99278DB30895262FE199FECF1CBAE3
:100490001FBA8EBB2DBB0FB6F894E29AE19A0FBE3D
:0804A00001960895F894FFCFC6
:0404A8000EFFFF0044
:00000001FF
